:200000000C947A000C94F1120C94CA120C9491140C9464140C9437140C94A2000C94A200DB
:200020000C94A2000C94BE140C94A2000C94A2000C94A2000C94A2000C94A2000C94A20080
:200040000C9480120C94A2000C944E120C9428120C94A2000C94A2000C94A2000C94A2004A
:200060000C9418130C94A200084AD73B3BCE016E84BCBFFDC12F3D6C74319ABD56833DDA16
:200080003D00C77F11BED9E4BB4C3E916BAAAABE000000803F0000000000240027002A00CA
:2000A000000000080002010000030407000000000000000001020408102040800102040819
:2000C000102001020408102000000000250028002B0004040404040404040202020202020D
:2000E000030303030303000000002300260029002415922311241FBECFEFD8E0DEBFCDBFDD
:2001000012E0A0E0B1E0ECE4F0E502C005900D92AA34B107D9F726E0AAE4B2E001C01D9245
:20012000AA33B207E1F710E0C9E7D0E004C02197FE010E94CC26C837D107C9F70E9465163E
:200140000C9419280C940000982F2091B60381E0213208F043C0809192038111FCCF80912A
:20016000B50332E030939203909391039FEF9093900310928F0320938E03A5E9B3E0EEE6F5
:20018000F3E090E0291331C010926D0390916D03880F892B80936D0380916C03813049F50F
:2001A00010926C0380916D038093BB008091BC0083FDF8CF85EC8093BC0080919203823033
:2001C000E1F3809190038F3FB1F0809190038032A1F080919003803391F084E010929403DC
:2001E0001092B6031092930308953D9131939F5FC9CF85EEE0CF80E0F1CF82E0EFCF83E0E2
:20020000EDCF109275051092760510927705109278051092790510927A0510927B051092A7
:200220007C0510927D0510927E0510927F051092800510928105109282051092830510928A
:200240008405109285051092860510928705109288051092890510928A0510928B0510922A
:200260008C0510928D0510928E0510928F05109290051092910510929205109293051092CA
:200280009405089580E090E0AFEFB0E08093750590937605A0937705B093780580937905FF
:2002A00090937A05A0937B05B0937C0580937D0590937E05A0937F05B093800580938105D2
:2002C00090938205A0938305B09384058093850590938605A0938705B09388058093890572
:2002E00090938A05A0938B05B0938C0580938D0590938E05A0938F05B09390058093910512
:2003000090939205A0939305B09394050895109275051092760510927705109278051092C7
:20032000790510927A0510927B0510927C0580E09FEFAFEFB0E080937D0590937E05A0934F
:200340007F05B09380058093810590938205A0938305B0938405109285051092860510928C
:200360008705109288051092890510928A0510928B0510928C0510928D0510928E051092F1
:200380008F051092900510929105109292051092930510929405089580E09FEFAFEFB0E0F3
:2003A0008093750590937605A0937705B09378058093790590937A05A0937B05B0937C05F9
:2003C00010927D0510927E0510927F051092800510928105109282051092830510928405E1
:2003E000109285051092860510928705109288051092890510928A0510928B0510928C0581
:00000001FF
